{
  "contractName": "Voting",
  "abi": [
    {
      "inputs": [
        {
          "internalType": "string[]",
          "name": "_candidates",
          "type": "string[]"
        }
      ],
      "stateMutability": "nonpayable",
      "type": "constructor"
    },
    {
      "inputs": [],
      "name": "admin",
      "outputs": [
        {
          "internalType": "address",
          "name": "",
          "type": "address"
        }
      ],
      "stateMutability": "view",
      "type": "function"
    },
    {
      "inputs": [
        {
          "internalType": "uint256",
          "name": "",
          "type": "uint256"
        }
      ],
      "name": "candidates",
      "outputs": [
        {
          "internalType": "string",
          "name": "",
          "type": "string"
        }
      ],
      "stateMutability": "view",
      "type": "function"
    },
    {
      "inputs": [
        {
          "internalType": "address",
          "name": "",
          "type": "address"
        }
      ],
      "name": "voters",
      "outputs": [
        {
          "internalType": "bool",
          "name": "",
          "type": "bool"
        }
      ],
      "stateMutability": "view",
      "type": "function"
    },
    {
      "inputs": [
        {
          "internalType": "string",
          "name": "",
          "type": "string"
        }
      ],
      "name": "votes",
      "outputs": [
        {
          "internalType": "uint256",
          "name": "",
          "type": "uint256"
        }
      ],
      "stateMutability": "view",
      "type": "function"
    },
    {
      "inputs": [],
      "name": "votingActive",
      "outputs": [
        {
          "internalType": "bool",
          "name": "",
          "type": "bool"
        }
      ],
      "stateMutability": "view",
      "type": "function"
    },
    {
      "inputs": [
        {
          "internalType": "address",
          "name": "_voter",
          "type": "address"
        }
      ],
      "name": "registerVoter",
      "outputs": [],
      "stateMutability": "nonpayable",
      "type": "function"
    },
    {
      "inputs": [],
      "name": "startVoting",
      "outputs": [],
      "stateMutability": "nonpayable",
      "type": "function"
    },
    {
      "inputs": [],
      "name": "endVoting",
      "outputs": [],
      "stateMutability": "nonpayable",
      "type": "function"
    },
    {
      "inputs": [
        {
          "internalType": "string",
          "name": "_candidate",
          "type": "string"
        }
      ],
      "name": "vote",
      "outputs": [],
      "stateMutability": "nonpayable",
      "type": "function"
    },
    {
      "inputs": [
        {
          "internalType": "string",
          "name": "_candidate",
          "type": "string"
        }
      ],
      "name": "getVotes",
      "outputs": [
        {
          "internalType": "uint256",
          "name": "",
          "type": "uint256"
        }
      ],
      "stateMutability": "view",
      "type": "function"
    },
    {
      "inputs": [],
      "name": "getCandidates",
      "outputs": [
        {
          "internalType": "string[]",
          "name": "",
          "type": "string[]"
        }
      ],
      "stateMutability": "view",
      "type": "function"
    }
  ],
  "bytecode": "0x60806040526000600460006101000a81548160ff0219169083151502179055503480156200002c57600080fd5b50604051620013cf380380620013cf83398181016040528101906200005291906200033b565b336000806101000a81548173ffffffffffffffffffffffffffffffffffffffff021916908373ffffffffffffffffffffffffffffffffffffffff1602179055508060039080519060200190620000aa929190620000b2565b5050620004e0565b82805482825590600052602060002090810192821562000106579160200282015b8281111562000105578251829080519060200190620000f492919062000119565b5091602001919060010190620000d3565b5b509050620001159190620001aa565b5090565b82805462000127906200044c565b90600052602060002090601f0160209004810192826200014b576000855562000197565b82601f106200016657805160ff191683800117855562000197565b8280016001018555821562000197579182015b828111156200019657825182559160200191906001019062000179565b5b509050620001a69190620001d2565b5090565b5b80821115620001ce5760008181620001c49190620001f1565b50600101620001ab565b5090565b5b80821115620001ed576000816000905550600101620001d3565b5090565b508054620001ff906200044c565b6000825580601f1062000213575062000234565b601f016020900490600052602060002090810190620002339190620001d2565b5b50565b60006200024e6200024884620003b4565b62000380565b9050808382526020820190508260005b858110156200029257815185016200027788826200030e565b8452602084019350602083019250506001810190506200025e565b5050509392505050565b6000620002b3620002ad84620003e3565b62000380565b905082815260208101848484011115620002cc57600080fd5b620002d984828562000416565b509392505050565b600082601f830112620002f357600080fd5b81516200030584826020860162000237565b91505092915050565b600082601f8301126200032057600080fd5b8151620003328482602086016200029c565b91505092915050565b6000602082840312156200034e57600080fd5b600082015167ffffffffffffffff8111156200036957600080fd5b6200037784828501620002e1565b91505092915050565b6000604051905081810181811067ffffffffffffffff82111715620003aa57620003a9620004b1565b5b8060405250919050565b600067ffffffffffffffff821115620003d257620003d1620004b1565b5b602082029050602081019050919050565b600067ffffffffffffffff821115620004015762000400620004b1565b5b601f19601f8301169050602081019050919050565b60005b838110156200043657808201518184015260208101905062000419565b8381111562000446576000848401525b50505050565b600060028204905060018216806200046557607f821691505b602082108114156200047c576200047b62000482565b5b50919050565b7f4e487b7100000000000000000000000000000000000000000000000000000000600052602260045260246000fd5b7f4e487b7100000000000000000000000000000000000000000000000000000000600052604160045260246000fd5b610edf80620004f06000396000f3fe608060405234801561001057600080fd5b50600436106100a95760003560e01c8063805265e511610071578063805265e514610140578063a3ec138d14610170578063b99ef1fa146101a0578063c3403ddf146101d0578063f851a440146101da578063fc36e15b146101f8576100a9565b806306a49fce146100ae5780631ec6b60a146100cc5780633477ee2e146100d657806338db6dd314610106578063408e272714610122575b600080fd5b6100b6610214565b6040516100c39190610b2c565b60405180910390f35b6100d46102ed565b005b6100f060048036038101906100eb9190610892565b610398565b6040516100fd9190610b69565b60405180910390f35b610120600480360381019061011b9190610828565b610444565b005b61012a61052c565b6040516101379190610b4e565b60405180910390f35b61015a60048036038101906101559190610851565b61053f565b6040516101679190610beb565b60405180910390f35b61018a60048036038101906101859190610828565b610567565b6040516101979190610b4e565b60405180910390f35b6101ba60048036038101906101b59190610851565b610587565b6040516101c79190610beb565b60405180910390f35b6101d86105b5565b005b6101e2610660565b6040516101ef9190610b11565b60405180910390f35b610212600480360381019061020d9190610851565b610684565b005b60606003805480602002602001604051908101604052809291908181526020016000905b828210156102e457838290600052602060002001805461025790610d62565b80601f016020809104026020016040519081016040528092919081815260200182805461028390610d62565b80156102d05780601f106102a5576101008083540402835291602001916102d0565b820191906000526020600020905b8154815290600101906020018083116102b357829003601f168201915b505050505081526020019060010190610238565b50505050905090565b60008054906101000a900473ffffffffffffffffffffffffffffffffffffffff1673ffffffffffffffffffffffffffffffffffffffff163373ffffffffffffffffffffffffffffffffffffffff161461037b576040517f08c379a000000000000000000000000000000000000000000000000000000000815260040161037290610b8b565b60405180910390fd5b6001600460006101000a81548160ff021916908315150217905550565b600381815481106103a857600080fd5b9060005260206000200160009150905080546103c390610d62565b80601f01602080910402602001604051908101604052809291908181526020018280546103ef90610d62565b801561043c5780601f106104115761010080835404028352916020019161043c565b820191906000526020600020905b81548152906001019060200180831161041f57829003601f168201915b505050505081565b60008054906101000a900473ffffffffffffffffffffffffffffffffffffffff1673ffffffffffffffffffffffffffffffffffffffff163373ffffffffffffffffffffffffffffffffffffffff16146104d2576040517f08c379a00000000000000000000000000000000000000000000000000000000081526004016104c990610b8b565b60405180910390fd5b60018060008373ffffffffffffffffffffffffffffffffffffffff1673ffffffffffffffffffffffffffffffffffffffff16815260200190815260200160002060006101000a81548160ff02191690831515021790555050565b600460009054906101000a900460ff1681565b60006002826040516105519190610afa565b9081526020016040518091039020549050919050565b60016020528060005260406000206000915054906101000a900460ff1681565b6002818051602081018201805184825260208301602085012081835280955050505050506000915090505481565b60008054906101000a900473ffffffffffffffffffffffffffffffffffffffff1673ffffffffffffffffffffffffffffffffffffffff163373ffffffffffffffffffffffffffffffffffffffff1614610643576040517f08c379a000000000000000000000000000000000000000000000000000000000815260040161063a90610b8b565b60405180910390fd5b6000600460006101000a81548160ff021916908315150217905550565b60008054906101000a900473ffffffffffffffffffffffffffffffffffffffff1681565b600460009054906101000a900460ff166106d3576040517f08c379a00000000000000000000000000000000000000000000000000000000081526004016106ca90610bcb565b60405180910390fd5b600160003373ffffffffffffffffffffffffffffffffffffffff1673ffffffffffffffffffffffffffffffffffffffff16815260200190815260200160002060009054906101000a900460ff1661075f576040517f08c379a000000000000000000000000000000000000000000000000000000000815260040161075690610bab565b60405180910390fd5b60028160405161076f9190610afa565b9081526020016040518091039020600081548092919061078e90610d94565b919050555050565b60006107a96107a484610c37565b610c06565b9050828152602081018484840111156107c157600080fd5b6107cc848285610d20565b509392505050565b6000813590506107e381610e7b565b92915050565b600082601f8301126107fa57600080fd5b813561080a848260208601610796565b91505092915050565b60008135905061082281610e92565b92915050565b60006020828403121561083a57600080fd5b6000610848848285016107d4565b91505092915050565b60006020828403121561086357600080fd5b600082013567ffffffffffffffff81111561087d57600080fd5b610889848285016107e9565b91505092915050565b6000602082840312156108a457600080fd5b60006108b284828501610813565b91505092915050565b60006108c78383610962565b905092915050565b6108d881610cd8565b82525050565b60006108e982610c77565b6108f38185610c9a565b93508360208202850161090585610c67565b8060005b85811015610941578484038952815161092285826108bb565b945061092d83610c8d565b925060208a01995050600181019050610909565b50829750879550505050505092915050565b61095c81610cea565b82525050565b600061096d82610c82565b6109778185610cab565b9350610987818560208601610d2f565b61099081610e6a565b840191505092915050565b60006109a682610c82565b6109b08185610cbc565b93506109c0818560208601610d2f565b6109c981610e6a565b840191505092915050565b60006109df82610c82565b6109e98185610ccd565b93506109f9818560208601610d2f565b80840191505092915050565b6000610a12602383610cbc565b91507f4f6e6c792061646d696e2063616e20706572666f726d2074686973206163746960008301527f6f6e2e00000000000000000000000000000000000000000000000000000000006020830152604082019050919050565b6000610a78601f83610cbc565b91507f596f7520617265206e6f74207265676973746572656420746f20766f74652e006000830152602082019050919050565b6000610ab8601583610cbc565b91507f566f74696e67206973206e6f74206163746976652e00000000000000000000006000830152602082019050919050565b610af481610d16565b82525050565b6000610b0682846109d4565b915081905092915050565b6000602082019050610b2660008301846108cf565b92915050565b60006020820190508181036000830152610b4681846108de565b905092915050565b6000602082019050610b636000830184610953565b92915050565b60006020820190508181036000830152610b83818461099b565b905092915050565b60006020820190508181036000830152610ba481610a05565b9050919050565b60006020820190508181036000830152610bc481610a6b565b9050919050565b60006020820190508181036000830152610be481610aab565b9050919050565b6000602082019050610c006000830184610aeb565b92915050565b6000604051905081810181811067ffffffffffffffff82111715610c2d57610c2c610e3b565b5b8060405250919050565b600067ffffffffffffffff821115610c5257610c51610e3b565b5b601f19601f8301169050602081019050919050565b6000819050602082019050919050565b600081519050919050565b600081519050919050565b6000602082019050919050565b600082825260208201905092915050565b600082825260208201905092915050565b600082825260208201905092915050565b600081905092915050565b6000610ce382610cf6565b9050919050565b60008115159050919050565b600073ffffffffffffffffffffffffffffffffffffffff82169050919050565b6000819050919050565b82818337600083830152505050565b60005b83811015610d4d578082015181840152602081019050610d32565b83811115610d5c576000848401525b50505050565b60006002820490506001821680610d7a57607f821691505b60208210811415610d8e57610d8d610e0c565b5b50919050565b6000610d9f82610d16565b91507fffffffffffffffffffffffffffffffffffffffffffffffffffffffffffffffff821415610dd257610dd1610ddd565b5b600182019050919050565b7f4e487b7100000000000000000000000000000000000000000000000000000000600052601160045260246000fd5b7f4e487b7100000000000000000000000000000000000000000000000000000000600052602260045260246000fd5b7f4e487b7100000000000000000000000000000000000000000000000000000000600052604160045260246000fd5b6000601f19601f8301169050919050565b610e8481610cd8565b8114610e8f57600080fd5b50565b610e9b81610d16565b8114610ea657600080fd5b5056fea2646970667358221220ed9e610dfc33743bf301e1d4748ca7ba5b7c0d5bf0efdca81cc203cbf8e2c44a64736f6c63430008000033",
  "immutableReferences": {},
  "source": "pragma solidity ^0.8.0;\n\ncontract Voting {\n    address public admin;\n    mapping(address => bool) public voters;\n    mapping(string => uint256) public votes;\n    string[] public candidates;\n    bool public votingActive = false;\n\n    constructor(string[] memory _candidates) {\n        admin = msg.sender;\n        candidates = _candidates;\n    }\n\n    modifier onlyAdmin() {\n        require(msg.sender == admin, \"Only admin can perform this action.\");\n        _;\n    }\n\n    function registerVoter(address _voter) public onlyAdmin {\n        voters[_voter] = true;\n    }\n\n    function startVoting() public onlyAdmin {\n        votingActive = true;\n    }\n\n    function endVoting() public onlyAdmin {\n        votingActive = false;\n    }\n\n    function vote(string memory _candidate) public {\n        require(votingActive, \"Voting is not active.\");\n        require(voters[msg.sender], \"You are not registered to vote.\");\n        votes[_candidate]++;\n    }\n\n    function getVotes(string memory _candidate) public view returns (uint256) {\n        return votes[_candidate];\n    }\n\n    function getCandidates() public view returns (string[] memory) {\n        return candidates;\n    }\n}",
  "sourcePath": "C:\\Users\\mdesi\\voting-system\\contracts\\Voting.sol",
  "compiler": {
    "name": "solc",
    "version": "0.8.0+commit.c7dfd78e.Emscripten.clang"
  },
  "schemaVersion": "3.4.16",
  "updatedAt": "2024-09-10T02:16:55.942Z",
  "devdoc": {
    "kind": "dev",
    "methods": {},
    "version": 1
  },
  "userdoc": {
    "kind": "user",
    "methods": {},
    "version": 1
  }
}